:100000000C942E000C9440000C9440000C94400082
:100010000C9440000C9440000C9440000C94400060
:100020000C9440000C9440000C9440000C94400050
:100030000C9440000C9440000C9440000C94400040
:100040000C9440000C9440000C9440000C94400030
:100050000C9440000C9440000C94400011241FBEEE
:10006000CFEFD4E0DEBFCDBF22E0A0E0B1E001C021
:100070001D92A130B207E1F70E94BA010C949D02D3
:100080000C9400008091C00087FFFCCF8091C600D7
:1000900008959091C00095FFFCCF8093C60008950D
:1000A0000F931F93CF93DF938C01C0E0D1E0CE017B
:1000B000805091408017910724F40E944200899358
:1000C000F6CFDF91CF911F910F910895CF93DF93DA
:1000D000C0E0D1E00E9442008993882321F081E0B2
:1000E000CA30D807B9F7DF91CF91089524B3277E9E
:1000F00024BB21B3287E21BB2EB127742EB92BB18E
:10010000217F2BB928B1277628B925B1267625B9C4
:10011000129860FD439A61FD479A62FD129A63FD51
:10012000449A64FD759A65FD2F9A66FD2B9A67FDCA
:10013000749A70FDA39A71FD2C9A72FD739A73FDE7
:10014000A49A74FD889A75FD599A76FD289A77FDD0
:10015000899A80FD5A9A81FD779A82FD8A9A83FD59
:100160005B9A84FD8C9A08958E9898B19A7B98B981
:1001700092B19C7392B980FD119A81FD469A82FDDD
:10018000429A83FD109A84FD179A85FD409A86FD58
:100190008E9A87FD169A0895869A87B1856487B9E5
:1001A00081B1836C81B908958E9888B18A7B88B9B2
:1001B00082B18C7382B9869887B18A7B87B981B105
:1001C0008C7381B90895069B02C080E801C080E06D
:1001D0007E99806430998062079980610099886077
:1001E0003299846036998260019981600895CF9335
:1001F000C42F0E9476008C2F0E94B4002998159875
:1002000000000000299A159ACF9108950E94760067
:1002100029988D98000000000E94E300299A8D9A89
:10022000089529988D98000000000E94E300299A03
:100230008D9A089584B3877E84BB81B3887E81BB09
:100240008EB187748EB98BB1817F8BB988B1877677
:1002500088B985B1867685B91298439A129A759AAB
:100260002B9AA39A739A8E9888B18A7B88B982B1A7
:100270008C7382B9469A109A409A169A29981598C2
:1002800000000000299A159A84B3877E84BB81B34D
:10029000887E81BB8EB187748EB98BB1817F8BB91B
:1002A00088B1877688B985B1867685B91298749AAF
:1002B00088B1806988B985B1806985B98E9888B11F
:1002C0008A7B88B982B18C7382B98E9A429A82B144
:1002D000826882B92998159800000000299A159A19
:1002E00084B3877E84BB81B3887E81BB8EB18774E3
:1002F0008EB98BB1817F8BB988B1877688B985B18A
:10030000867685B91298439A129A759A2B9AA39A6F
:10031000739A8E9888B18A7B88B982B18C7382B9BE
:10032000409A169A2998159800000000299A159A63
:100330000895549A5C9A2FEF89E698E12150804005
:100340009040E1F700C000005C982FEF89E698E14B
:10035000215080409040E1F700C000001092C4009E
:10036000E1ECF0E08081806180838081886080831F
:10037000789408950E949901C12CD12C76010FEF39
:100380000E944200809300028535D9F483B38861CE
:1003900083BB80B3876F80BB8DB1886B8DB98AB109
:1003A0008F608AB987B107B984B18B6B84B981B189
:1003B000876E81B9589A8F9A2D9A159A8D9A299A93
:1003C000DFCF843411F52D9858988F9815988D9813
:1003D00029982FEF80E792E0215080409040E1F78C
:1003E00000C0000083B3887183BB83988DB1887B84
:1003F0008DB98AB18F708AB987B187B984B18B7B87
:1004000084B981B1877E81B9BBCF8134C1F483E0E7
:1004100090E00E94500080910201C0900101D12C17
:10042000E12CF12CFE2CED2CDC2CCC24E82A809144
:100430000001C82AC701B6010E947600A1CF82350B
:10044000C9F45C9A0E94D4004601570110E4C5012A
:10045000B4010E9406010E9449002FEF821A920AFD
:10046000A20AB20A115099F780E4C80ED11CE11C0F
:10047000F11C3CC08735E1F580E490E00E9450001B
:100480005C9AC0E0D1E04601570188818F3F99F422
:100490009FEF891A990AA90AB90A219621E0C03466
:1004A000D20799F720E4C20ED11CE11CF11C81E3B4
:1004B0000E9449001BC00E94CC000E941A01488182
:1004C000C501B4010E94F7008AE18A95F1F700C0E6
:1004D0000E94D4000E94110198818917C9F20E94DC
:1004E000110195E09A95F1F70000F6CF5C9848CF9E
:1004F0008835E1F484E090E00E9450008091020190
:1005000080900101912CA12CB12CBA2CA92C982CF3
:100510008824A82A80910001882A0E94CC0040915A
:100520000301C501B4010E94F7002ACF863509F006
:0E05300027CF81E00E94490023CFF894FFCF2F
:00000001FF
